S01700004763634170706C69636174696F6E352E7372656357
S11300000C946B000C9488000C9488000C94880069
S11300100C9488000C9488000C9488000C9488003C
S11300200C9488000C9488000C9488000C94F006BE
S11300300C9488000C9488000C9488000C9488001C
S11300400C9488000C9488000C9488000C9488000C
S11300500C94880007634236B79BD8A71A396856B0
S113006018AEBAAB558C1D3CB7CC5763BD6DEDFDD6
S1130070753EF6177231BF000000803F0800000093
S1130080BE922449123EABAAAA2ABECDCCCC4C3E89
S113009000000080BEABAAAAAA3E00000000BF0078
S11300A00000803F0000000000084178D3BB438774
S11300B0D1133D190E3CC3BD4282AD2B3E68EC8288
S11300C076BED98FE1A93E4C80EFFFBE01C4FF7F0D
S11300D03F000000000011241FBECFE5D8E0DEBFC2
S11300E0CDBF12E0A0E6B0E0E2E0FBE102C0059083
S11300F00D92A239B107D9F722E0A2E9B2E001C01A
S11301001D92A33AB207E1F70E942C070C947F0DCD
S11301100C94000081111BC0413059F42AB381E0D2
S113012090E002C0880F991F6A95E2F7822B8ABB80
S11301300895411162C02AB381E090E002C0880FA3
S1130140991F6A95E2F7809582238ABB08958130CE
S1130150D9F4413059F427B381E090E002C0880F0C
S1130160991F6A95E2F7822B87BB0895411145C018
S113017027B381E090E002C0880F991F6A95E2F7E7
S11301808095822387BB08958230D9F4413059F495
S113019024B381E090E002C0880F991F6A95E2F7CA
S11301A0822B84BB0895411128C024B381E090E0E0
S11301B002C0880F991F6A95E2F78095822384BB59
S11301C008958330D1F4413059F421B381E090E0B3
S11301D002C0880F991F6A95E2F7822B81BB0895AC
S11301E041110BC021B381E090E002C0880F991F38
S11301F06A95E2F78095822381BB089581111BC023
S1130200413059F42BB381E090E002C0880F991F6C
S11302106A95E2F7822B8BBB0895411162C02BB320
S113022081E090E002C0880F991F6A95E2F78095FB
S113023082238BBB08958130D9F4413059F428B31B
S113024081E090E002C0880F991F6A95E2F7822B43
S113025088BB0895411145C028B381E090E002C0F5
S1130260880F991F6A95E2F78095822388BB0895C9
S11302708230D9F4413059F425B381E090E002C0D2
S1130280880F991F6A95E2F7822B85BB0895411167
S113029028C025B381E090E002C0880F991F6A95B9
S11302A0E2F78095822385BB08958330D1F44130F1
S11302B059F422B381E090E002C0880F991F6A9537
S11302C0E2F7822B82BB089541110BC022B381E077
S11302D090E002C0880F991F6A95E2F78095822307
S11302E082BB0895811109C089B390E002C095953D
S11302F087956A95E2F781700895813049F486B351
S113030090E002C0959587956A95E2F7817008950B
S1130310823049F483B390E002C0959587956A953D
S1130320E2F781700895833049F480B390E002C00D
S1130330959587956A95E2F78170089580E0089510
S11303408BB780648BBF08958BB78F7B8BBF089569
S11303508AB780648ABF089585B7816085BF85B7F1
S1130360826085BF0E94A4010E94BD010E94A80171
S113037008958FB780688FBF08958FB78F778FBF29
S113038008958BBBA898A998AA9A8DE08A95F1F74D
S11303900000AA988DE08A95F1F7000008958BBBC0
S11303A0A89AA998AA9A8DE08A95F1F70000AA98CC
S11303B08DE08A95F1F7000008958FEF8ABB84BB26
S11303C085B3886385BB8FE39CE90197F1F700C08F
S11303D000008EE30E94C10180E40E94C10188EB09
S11303E00E94C10180EC0E94C1018FE30E94C101FF
S11303F008951F93CF93DF9385B3886185BB18EB72
S1130400812F0E94C101C0E4D0E080E00E94CF01AE
S11304102197D9F71F5F103C99F780E40E94C1012E
S113042088EB0E94C101DF91CF911F9108952F9213
S11304303F924F925F926F927F928F929F92AF9270
S1130440BF92CF92DF92EF92FF920F931F93CF93BD
S1130450DF93CDB7DEB728970FB6F894DEBF0FBE93
S1130460CDBF8C012B017C0128EBE20EF11C67014E
S113047080919A0290919B028E159F0519F080E459
S11304800E94C101F0929B02E0929A02AB9AAC984E
S11304908E2D0E94C101F2019081992309F468C153
S11304A01195019511091695102F00271795079599
S11304B0980125503C4F3E832D83F12CE12C812C57
S11304C00F2EFFE39F2EF02D612C712C68943324A2
S11304D033F86894222424F8960140E050E02983FC
S11304E03A834B835C83BF2CAE2C06C04D815E8166
S11304F04615570508F43CC1903209F445C001E0A3
S113050010E06301C00ED11E20E030E040E05FE364
S11305106B2D7A2D882D992D0E94C309E62EF72E76
S113052088879F830E94A10A7695762F6627779500
S11305306795C616D70611F50530110529F180E433
S11305400E94C10185B3832585BB85B3822585BB04
S113055069817A818B819C810E94D70A2B2D3A2D47
S1130560482D592D0E94C3090E94A80A862F0E9473
S1130570C101BE2CAF2C88849F8036010F5F1F4FB2
S11305800630110509F0BDCF8D819E818615970532
S113059008F4EEC0F2012081822F90E08097AC0134
S11305A0440F551F440F551F840F951F0496AC012B
S11305B0440F551F440F551F840F951F805A9F4F9A
S11305C0892B39F0203209F051C08301E12CF12C40
S11305D003C08301E12CF12CF201808190E080972B
S11305E0FC01EE0FFF1FEE0FFF1FE80FF91FEE0DCA
S11305F0FF1DE05AFF4F80810E94CF010F5F1F4F04
S1130600C8018F739927892B29F585B3832585BB69
S113061085B3822585BB69817A818B819C810E9407
S1130620D70A2B2D3A2D482D592D0E94C3090E941B
S1130630A80A862F0E94C10120E030E040E05FE379
S11306406B2D7A2D882D992D0E94C309B62EA72EC5
S1130650882E992EFFEFEF1AFF0A25E0E216F10427
S113066009F0BACF35E0630E711C7BC08301E12C25
S1130670F12CF201808190E08097FC01EE0FFF1FC6
S1130680EE0FFF1FE80FF91FEE0DFF1DE05AFF4F9D
S113069080810E94CF010F5F1F4FC8018F7399277C
S11306A0892B29F585B3832585BB85B3822585BB35
S11306B069817A818B819C810E94D70A2B2D3A2DE6
S11306C0482D592D0E94C3090E94A80A862F0E9412
S11306D0C10120E030E040E05FE36B2D7A2D882DEE
S11306E0992D0E94C309B62EA72E882E992EFFEFAE
S11306F0EF1AFF0A25E0E216F10409F0BACF80E010
S11307000E94CF0136E0630E711CC3018F739927D9
S1130710892B39F585B3832585BB85B3822585BBB4
S113072069817A818B819C810E94D70A9B01AC01EB
S11307306B2D7A2D882D992D0E94C3090E94A80A39
S1130740862F0E94C10120E030E040E05FE36B2D82
S11307507A2D882D992D0E94C309B62EA72E882E96
S1130760992E4FEF441A540AF20190819111BECE92
S113077028960FB6F894DEBF0FBECDBFDF91CF91A0
S11307801F910F91FF90EF90DF90CF90BF90AF90AB
S11307909F908F907F906F905F904F903F902F909D
S11307A008952F923F924F925F926F927F928F9211
S11307B09F92AF92BF92CF92DF92EF92FF920F93EC
S11307C01F93CF93DF93CDB7DEB728970FB6F89476
S11307D0DEBF0FBECDBF8C012B017C0128EBE20EE6
S11307E0F11C670180919802909199028E159F05E2
S11307F019F080E40E94C101F0929902E0929802FB
S1130800AC9AAB988E2D0E94C101F201908199237C
S113081009F468C11195019511091695102F002747
S113082017950795980125503C4F3E832D83F12C55
S1130830E12C812C0F2EFFE39F2EF02D612C712CC7
S11308406894332433F86894222424F8960140E011
S113085050E029833A834B835C83BF2CAE2C06C0C3
S11308604D815E814615570508F43CC1903209F468
S113087045C001E010E06301C00ED11E20E030E06D
S113088040E05FE36B2D7A2D882D992D0E94C309DA
S1130890E62EF72E88879F830E94A10A7695762FED
S11308A0662777956795C616D70611F505301105A5
S11308B029F180E40E94C10185B3832585BB85B3FA
S11308C0822585BB69817A818B819C810E94D70AAC
S11308D02B2D3A2D482D592D0E94C3090E94A80A98
S11308E0862F0E94C101BE2CAF2C88849F803601C4
S11308F00F5F1F4F0630110509F0BDCF8D819E811A
S11309008615970508F4EEC0F2012081822F90E04D
S11309108097AC01440F551F440F551F840F951F3A
S11309200496AC01440F551F440F551F840F951FA7
S1130930805A9F4F892B39F0203209F051C083012E
S1130940E12CF12C03C08301E12CF12CF201808114
S113095090E08097FC01EE0FFF1FEE0FFF1FE80FE2
S1130960F91FEE0DFF1DE05AFF4F80810E94CF0159
S11309700F5F1F4FC8018F739927892B29F585B302
S1130980832585BB85B3822585BB69817A818B816B
S11309909C810E94D70A2B2D3A2D482D592D0E9457
S11309A0C3090E94A80A862F0E94C10120E030E0FA
S11309B040E05FE36B2D7A2D882D992D0E94C309A9
S11309C0B62EA72E882E992EFFEFEF1AFF0A25E0E8
S11309D0E216F10409F0BACF35E0630E711C7BC056
S11309E08301E12CF12CF201808190E08097FC01DD
S11309F0EE0FFF1FEE0FFF1FE80FF91FEE0DFF1D97
S1130A00E05AFF4F80810E94CF010F5F1F4FC80142
S1130A108F739927892B29F585B3832585BB85B3E6
S1130A20822585BB69817A818B819C810E94D70A4A
S1130A302B2D3A2D482D592D0E94C3090E94A80A36
S1130A40862F0E94C10120E030E040E05FE36B2D7F
S1130A507A2D882D992D0E94C309B62EA72E882E93
S1130A60992EFFEFEF1AFF0A25E0E216F10409F0D0
S1130A70BACF80E00E94CF0136E0630E711CC3013F
S1130A808F739927892B39F585B3832585BB85B366
S1130A90822585BB69817A818B819C810E94D70ADA
S1130AA09B01AC016B2D7A2D882D992D0E94C309D1
S1130AB00E94A80A862F0E94C10120E030E040E095
S1130AC05FE36B2D7A2D882D992D0E94C309B62ED4
S1130AD0A72E882E992E4FEF441A540AF2019081C2
S1130AE09111BECE28960FB6F894DEBF0FBECDBFCF
S1130AF0DF91CF911F910F91FF90EF90DF90CF90F6
S1130B00BF90AF909F908F907F906F905F904F9029
S1130B103F902F9008956F927F928F929F92AF9201
S1130B20BF92CF92DF92EF92FF920F931F93CF93D6
S1130B30DF938B01EC01C854DF4F6E018091960264
S1130B40909197028C179D0719F080E40E94C101CF
S1130B50D0939702C0939602AC9AAB988C2F0E94C4
S1130B60C1018091940290919502892B09F03FC0B4
S1130B7080E40E94C1013BC080919402909195024F
S1130B808F779078992324F4019780689F6F01965A
S1130B900197E9F485B3862585BB85B3872585BB95
S1130BA0C701B6010E94D70AA50194010E94C30996
S1130BB00E94A80A862F0E94C10120E030E040E094
S1130BC05FE3C501B4010E94C3094B015C0180913C
S1130BD094029091950201969093950280939402C9
S1130BE089910E94CF01C017D10731F613C0E801E3
S1130BF00B5F1F4F0F2E812C912CA12CFFE3BF2ED6
S1130C00F02D6894662463F86894772474F8E12CD2
S1130C10F12CB2CFDF91CF911F910F91FF90EF9004
S1130C20DF90CF90BF90AF909F908F907F906F9008
S1130C3008956F927F928F929F92AF92BF92CF92BC
S1130C40DF92EF92FF920F931F93CF93DF938B0169
S1130C5090E088549F4F6C01AB9AAC980E94C101FC
S1130C608091920290919302892B09F03FC080E415
S1130C700E94C1013BC080919202909193028F77B0
S1130C809078992324F4019780689F6F01960197C7
S1130C90E9F485B3862585BB85B3872585BBC70164
S1130CA0B6010E94D70AA50194010E94C3090E94BB
S1130CB0A80A862F0E94C10120E030E040E05FE3F3
S1130CC0C501B4010E94C3094B015C0180919202E9
S1130CD0909193020196909393028093920289914A
S1130CE00E94CF01C017D10731F613C0E8010B5F92
S1130CF01F4F0F2E812C912CA12CFFE3BF2EF02D22
S1130D006894662463F86894772474F8E12CF12CD1
S1130D10B2CFDF91CF911F910F91FF90EF90DF90B1
S1130D20CF90BF90AF909F908F907F906F900895D9
S1130D30AF92BF92CF92DF92EF92FF920F931F93E5
S1130D40CF93DF93AC9AAB9888EB0E94C10100E18A
S1130D5010E00F2EC12CD12CE12CFFE3FF2EF02D3F
S1130D606894AA24A3F86894BB24B4F825C080E04E
S1130D700E94CF012197D9F785B38A2585BB85B316
S1130D808B2585BB20E030E048E353E4C701B6017E
S1130D900E94C3090E94A80A862F0E94C10120E074
S1130DA030E040E05FE3C701B6010E94C3096B0174
S1130DB07C010150110919F0C0E4D0E0D8CF80E4DF
S1130DC00E94C10188EB0E94C101DF91CF911F9164
S1130DD00F91FF90EF90DF90CF90BF90AF90089568
S1130DE01F920F920FB60F9211242F933F934F939C
S1130DF05F936F937F938F939F93AF93BF93EF937F
S1130E00FF9380919D0290919E02019690939E0281
S1130E1080939D0265E083E00E947201811106C007
S1130E2041E065E083E00E94FE0005C040E065E02B
S1130E3083E00E94FE00FF91EF91BF91AF919F91DB
S1130E408F917F916F915F914F913F912F910F906F
S1130E500FBE0F901F901895CF93DF93CDB7DEB7D9
S1130E606E970FB6F894DEBF0FBECDBF0E94DD01B2
S1130E700E94F90141E065E083E00E948A0041E0BC
S1130E8065E083E00E94FE000E94AC010E94A00184
S1130E900E94B9010E94B20980E00E94BA090E942E
S1130EA0BE0965E083E00E9472018130D1F3809134
S1130EB09C02823099F00E94BC0920919D023091DD
S1130EC09E02322F2227280F311D3093A202209335
S1130ED0A10280919C028F5F80939C0210929E02DB
S1130EE010929D0265E083E00E9472018823D1F391
S1130EF080919C02823099F00E94BC0920919D024D
S1130F0030919E02322F2227280F311D3093A002E8
S1130F1020939F0280919C028F5F80939C0260913A
S1130F209F027091A0020091A1021091A20280E0A0
S1130F3090E00E94D70A6B017C01B80180E090E048
S1130F400E94D70A9B01AC01C701B6010E94C309E4
S1130F5020E030E04AE754E40E94650B2DEB37E3D0
S1130F6046E855E30E94650B9B01AC0160E070E02C
S1130F7080E89FE30E942F0A4B015C0121E030E0EE
S1130F80AE014F5F5F4F0E9447096091A1027091CB
S1130F90A20200919F021091A002E090A102F090A1
S1130FA0A20280E090E00E94D70A20E030E048EC02
S1130FB052E40E94650B2B013C01B701600F711FC5
S1130FC080E090E00E94D70A9B01AC01C301B2010A
S1130FD00E942F0A21E030E0AE01455F5F4F0E947E
S1130FE04709A501940160E070E080E89FE30E9456
S1130FF02F0A20E030E04AE754E40E94650B21E028
S113100030E0AE014B5E5F4F0E94470980919C0225
S1131010823009F0D9C00E9498066CE772E080E043
S113102090E00E94D103BE016F5F7F4F80E090E0AB
S11310300E94D1036FE772E080E090E00E94D10348
S113104063E872E080E090E00E94170266E872E0D4
S113105080E090E00E941702BE01655F7F4F80E050
S113106090E00E94170269E872E080E090E00E943C
S113107017026BE872E081E090E00E94D103BE01A8
S11310806B5E7F4F81E090E00E94D1036EE872E0D6
S113109081E090E00E94D1036DE672E084E090E08C
S11310A00E948B056DE672E084E090E00E948B055F
S11310B068E672E084E090E00E948B0567E772E0E6
S11310C084E090E00E948B0567E772E084E090E0A2
S11310D00E948B0562E772E084E090E00E948B0539
S11310E06DE672E084E090E00E948B056DE672E0AC
S11310F084E090E00E948B0568E672E084E090E072
S11311000E948B0567E772E084E090E00E948B0503
S113111067E772E084E090E00E948B0562E772E08A
S113112084E090E00E948B056DE672E084E090E03C
S11311300E948B056DE672E084E00E94190668E661
S113114072E084E00E94190667E772E084E00E947E
S1131150190667E772E084E00E94190662E772E00C
S113116084E00E9419066DE672E084E00E9419068C
S11311706DE672E084E00E94190668E672E084E09D
S11311800E94190667E772E084E00E94190667E787
S113119072E084E00E94190662E772E084E00E9433
S11311A019066DE672E084E00E9419066DE672E0AD
S11311B084E00E9419062FEF89E698E121508040CF
S11311C09040E1F700C000002FEF81E19AE7215041
S11311D080409040E1F700C0000010929E021092FF
S11311E09D02FFCF9B01215031091216130684F48E
S11311F0FC01E60FF71FDC0180E090E04C91529176
S11312005D93408301962150310982179307B4F30B
S11312100895EF92FF920F931F93CF93DF938B0167
S11312209A01009799F0FB01C0E0D0E00F2EFAE09C
S1131230EF2EF12CF02D2196B7010E94570D805D01
S11312408193862F972F0097B1F702C0C0E0D0E0BA
S1131250C217D30764F4F801EC0FFD1FA801420F75
S1131260531F80E38193E417F507E1F7E901BE0119
S1131270C8010E94F208F801EC0FFD1F1082CE0194
S1131280DF91CF911F910F91FF90EF9008952F92CE
S11312903F924F925F926F927F928F929F92AF9202
S11312A0BF92CF92DF92EF92FF920F931F93CF934F
S11312B0DF934B015C018A01E9010E94A10A6B01E1
S11312C07C0140E050E0B801C6010E9409091C01FC
S11312D02097A9F1F801E80FF91F8EE28083BE017F
S11312E00D2E000C880B990B0E94D90A9B01AC01AE
S11312F060E070E080E291E40E94D20B2B013C019B
S1131300B601DD0C880B990B0E94D90A9B01AC0134
S1131310C501B4010E94C2099B01AC018FEF281AD8
S1131320380A020D131DC301B2010E94650B0E940D
S1131330A10ADC01CB01AE01B8010E940909DF91C9
S1131340CF911F910F91FF90EF90DF90CF90BF90BE
S1131350AF909F908F907F906F905F904F903F9051
S11313602F90089583B7807B826083BF89B78160A3
S113137089BF089582BF089582B7089589B78160AF
S113138089BF08955058BB27AA270E94DA090C94F4
S11313902B0B0E941D0B38F00E94240B20F039F413
S11313A09F3F19F426F40C941A0B0EF4E095E7FB16
S11313B00C94140BE92F0E943C0B58F3BA176207E4
S11313C073078407950720F079F4A6F50C945E0B57
S11313D00EF4E0950B2EBA2FA02D0B01B90190014C
S11313E00C01CA01A0011124FF27591B99F0593F90
S11313F050F4503E68F11A16F040A22F232F342FD8
S11314004427585FF3CF469537952795A795F04025
S11314105395C9F77EF41F16BA0B620B730B840B3A
S1131420BAF09150A1F0FF0FBB1F661F771F881FF2
S1131430C2F70EC0BA0F621F731F841F48F487954A
S113144077956795B795F7959E3F08F0B0CF93953C
S1131450880F08F09927EE0F9795879508950E94B5
S1131460430A0C942B0B0E94240B58F00E941D0B72
S113147040F029F45F3F29F00C94140B51110C94A3
S11314805F0B0C941A0B0E943C0B68F39923B1F385
S1131490552391F3951B550BBB27AA276217730796
S11314A0840738F09F5F5F4F220F331F441FAA1F2A
S11314B0A9F335D00E2E3AF0E0E832D091505040E6
S11314C0E695001CCAF72BD0FE2F29D0660F771F94
S11314D0881FBB1F261737074807AB07B0E809F07A
S11314E0BB0B802DBF01FF2793585F4F3AF09E3FFF
S11314F0510578F00C94140B0C945F0B5F3FE4F3EC
S1131500983ED4F3869577956795B795F7959F5F41
S1131510C9F7880F911D9695879597F90895E1E08D
S1131520660F771F881FBB1F621773078407BA07EC
S113153020F0621B730B840BBA0BEE1F88F7E09547
S113154008950E94A80A6894B1110C945F0B089541
S11315500E94440B88F09F5798F0B92F9927B751F0
S1131560B0F0E1F0660F771F881F991F1AF0BA9543
S1131570C9F714C0B13091F00E945E0BB1E0089538
S11315800C945E0B672F782F8827B85F39F0B93F2A
S1131590CCF3869577956795B395D9F73EF49095F6
S11315A08095709561957F4F8F4F9F4F0895E89474
S11315B009C097FB3EF490958095709561957F4F97
S11315C08F4F9F4F9923A9F0F92F96E9BB27939545
S11315D0F695879577956795B795F111F8CFFAF455
S11315E0BB0F11F460FF1BC06F5F7F4F8F4F9F4F86
S11315F016C0882311F096E911C0772321F09EE8E4
S1131600872F762F05C0662371F096E8862F70E049
S113161060E02AF09A95660F771F881FDAF7880F23
S11316209695879597F9089597F99F6780E870E0F4
S113163060E008959FEF80EC089500240A94161644
S1131640170618060906089500240A9412161306AC
S1131650140605060895092E0394000C11F488233A
S113166052F0BB0F40F4BF2B11F460FF04C06F5F56
S11316707F4F8F4F9F4F089557FD9058440F551F2C
S113168059F05F3F71F04795880F97FB991F61F000
S11316909F3F79F087950895121613061406551F77
S11316A0F2CF4695F1DF08C0161617061806991FE3
S11316B0F1CF86957105610508940895E894BB27D8
S11316C066277727CB0197F908950E94780B0C942D
S11316D02B0B0E941D0B38F00E94240B20F0952345
S11316E011F00C94140B0C941A0B11240C945F0B32
S11316F00E943C0B70F3959FC1F3950F50E0551F6A
S1131700629FF001729FBB27F00DB11D639FAA2752
S1131710F00DB11DAA1F649F6627B00DA11D661FA1
S1131720829F2227B00DA11D621F739FB00DA11DC2
S1131730621F839FA00D611D221F749F3327A00D7C
S1131740611D231F849F600D211D822F762F6A2F18
S113175011249F5750409AF0F1F088234AF0EE0F7D
S1131760FF1FBB1F661F771F881F91505040A9F7AA
S11317709E3F510580F00C94140B0C945F0B5F3F5B
S1131780E4F3983ED4F3869577956795B795F795E6
S1131790E7959F5FC1F7FE2B880F911D969587955E
S11317A097F90895FA01EE0FFF1F309621053105D0
S11317B0A1F16115710561F48038BFE39B0749F11C
S11317C068949038810561F08038BFEF9B0741F041
S11317D099234AF5FF3FE1053105210519F1E89404
S11317E00894E795D901AA2329F4AB2FBE2FF85FFB
S11317F0D0F310C0FF5F70F4A695E0F7F73950F00E
S113180019F0FF3A38F49F779F930DD00F9007FC9F
S11318109058089546F00C941A0B60E070E080E84C
S11318209FE308954FE79F775F934F933F932F93E1
S11318300E94CD0C2F913F914F915F910E94650BB7
S11318400C942A0C29F416F00C94140B0C945E0BD3
S11318500C941A0B0E94440BA8F39638A0F707F8CF
S11318600F92E8942BE33AEA48EB5FE70E947B0B84
S11318700F920F920F924DB75EB70F920E94150D03
S1131880E4E5F0E00E945C0C4F915F91EF91FF91D1
S1131890E595EE1FFF1F49F0FE57E0684427EE0F61
S11318A0441FFA95E1F74195550B0E948F0C0F9058
S11318B007FE0C94830C0895DF93CF931F930F932B
S11318C0FF92EF92DF927B018C01689406C0DA2EBE
S11318D0EF010E94780BFE01E894A59125913591C2
S11318E045915591A6F3EF010E94DA09FE01970193
S11318F0A801DA9469F7DF90EF90FF900F911F91A0
S1131900CF91DF9108959B01AC0160E070E080E825
S11319109FE30C942F0A0C94140B0C94490D0E9411
S1131920440BD8F39923C9F3940F511DA3F3915099
S1131930504094F059F0882332F0660F771F881FC7
S113194091505040C1F79E3F51052CF7880F911DCF
S11319509695879597F908955F3FACF0983E9CF073
S1131960BB27869577956795B79508F4B1609395ED
S1131970C1F7BB0F58F711F460FFE8CF6F5F7F4FDB
S11319808F4F9F4FE3CF0C945F0B16F00C94490DCF
S11319900C941A0B68940C94140B0E94440BA8F337
S11319A09923C1F3AEF3DF93CF931F930F93FF9269
S11319B0C92FDD2788232AF02197660F771F881FF8
S11319C0DAF720E030E040E85FEB9FE3883920F06D
S11319D0803E38F021968F770E94C309ECE7F0E04F
S11319E004C00E94C309E9EAF0E00E945C0C8B0188
S11319F0BE01EC01FB2E6F5771097595771F880B9B
S1131A00990B0E94D90A28E132E741E35FE30E947F
S1131A10780BAF2D9801AE01FF900F911F91CF91DC
S1131A20DF910E94DA090C942B0BFA01DC01AA0F56
S1131A30BB1F9B01AC01BF5728F42227332744273F
S1131A40507820C0B75190F4AB2F002446953795B9
S1131A502795011CA395D2F3002071F0220F331FA8
S1131A60441FB395DAF30ED00C94C20961307105AA
S1131A70A0E88A07B94630F49B01AC0166277727B2
S1131A8088279078309621F02083318342835383D2
S1131A9008959F3F31F0915020F48795779567958D
S1131AA0B795880F911D9695879597F9089597FB9B
S1131AB0072E16F4009407D077FD09D00E946B0D11
S1131AC007FC05D03EF4909581959F4F089570953D
S1131AD061957F4F0895AA1BBB1B51E107C0AA1F44
S1131AE0BB1FA617B70710F0A61BB70B881F991FBB
S1131AF05A95A9F780959095BC01CD010895F89465
S1051B00FFCF11
S1131B02000000000000005F00000007000700144E
S1131B127F147F14242A7F2A12231308646236490D
S1131B225522500005030000001C224100004122FE
S1131B321C0014083E081408083E0808005030002F
S1131B420008080808080060600000201008040269
S1131B523E5149453E00427F40004261514946217F
S1131B6241454B311814127F1027454545393C4AEB
S1131B72494930017109050336494949360649493B
S1131B82291E003636000000563600000814224191
S1131B9200141414141400412214080201510906F9
S1131BA2324979413E7E1111117E7F494949363EBF
S1131BB2414141227F4141221C7F494949417F09D8
S1131BC20909013E4149497A7F0808087F00417F9B
S1131BD241002040413F017F081422417F404040A0
S1131BE2407F020C027F7F0408107F3E4141413E48
S1131BF27F090909063E4151215E7F09192946469A
S1131C024949493101017F01013F4040403F1F20C2
S1131C1240201F3F4038403F631408146307087094
S1131C2208076151494543007F41410002040810FD
S1131C32200041417F000402010204404040404030
S1131C42000102040020545454787F484444383834
S1131C5244444420384444487F3854545418087E39
S1131C620901020C5252523E7F0804047800447D5A
S1131C7240002040443D007F1028440000417F4042
S1131C82007C041804787C080404783844444438FA
S1131C927C14141408081414187C7C0804040848DE
S1131CA254545420043F4440203C4040207C1C2097
S1131CB240201C3C4030403C44281028440C5050E6
S1131CC2503C4464544C44000836410000007F00F8
S1131CD2000041360800100808100878464146788A
S1131CE201010101017F4040404040404040407FAB
S1131CF2010101017F0101010101010101017F4093
S1131D0240404040404040407F010101014040408A
S1131D1240407F404040400101010101463D004BEB
S1131D22485A00202000443D002500543D006D73B4
S1051D320000AB
S9030000FC
